{
  "_format": "hh-sol-artifact-1",
  "contractName": "FoterreToken",
  "sourceName": "contracts/FoterreToken.sol",
  "abi": [
    {
      "inputs": [
        {
          "internalType": "uint256",
          "name": "max_supply",
          "type": "uint256"
        }
      ],
      "stateMutability": "nonpayable",
      "type": "constructor"
    },
    {
      "inputs": [
        {
          "internalType": "uint256",
          "name": "increasedSupply",
          "type": "uint256"
        },
        {
          "internalType": "uint256",
          "name": "cap",
          "type": "uint256"
        }
      ],
      "name": "ERC20ExceededCap",
      "type": "error"
    },
    {
      "inputs": [
        {
          "internalType": "address",
          "name": "spender",
          "type": "address"
        },
        {
          "internalType": "uint256",
          "name": "allowance",
          "type": "uint256"
        },
        {
          "internalType": "uint256",
          "name": "needed",
          "type": "uint256"
        }
      ],
      "name": "ERC20InsufficientAllowance",
      "type": "error"
    },
    {
      "inputs": [
        {
          "internalType": "address",
          "name": "sender",
          "type": "address"
        },
        {
          "internalType": "uint256",
          "name": "balance",
          "type": "uint256"
        },
        {
          "internalType": "uint256",
          "name": "needed",
          "type": "uint256"
        }
      ],
      "name": "ERC20InsufficientBalance",
      "type": "error"
    },
    {
      "inputs": [
        {
          "internalType": "address",
          "name": "approver",
          "type": "address"
        }
      ],
      "name": "ERC20InvalidApprover",
      "type": "error"
    },
    {
      "inputs": [
        {
          "internalType": "uint256",
          "name": "cap",
          "type": "uint256"
        }
      ],
      "name": "ERC20InvalidCap",
      "type": "error"
    },
    {
      "inputs": [
        {
          "internalType": "address",
          "name": "receiver",
          "type": "address"
        }
      ],
      "name": "ERC20InvalidReceiver",
      "type": "error"
    },
    {
      "inputs": [
        {
          "internalType": "address",
          "name": "sender",
          "type": "address"
        }
      ],
      "name": "ERC20InvalidSender",
      "type": "error"
    },
    {
      "inputs": [
        {
          "internalType": "address",
          "name": "spender",
          "type": "address"
        }
      ],
      "name": "ERC20InvalidSpender",
      "type": "error"
    },
    {
      "inputs": [
        {
          "internalType": "string",
          "name": "message",
          "type": "string"
        }
      ],
      "name": "restrictAccess",
      "type": "error"
    },
    {
      "anonymous": false,
      "inputs": [
        {
          "indexed": true,
          "internalType": "address",
          "name": "account",
          "type": "address"
        },
        {
          "indexed": false,
          "internalType": "string",
          "name": "message",
          "type": "string"
        }
      ],
      "name": "AccountFrozenEvent",
      "type": "event"
    },
    {
      "anonymous": false,
      "inputs": [
        {
          "indexed": true,
          "internalType": "address",
          "name": "owner",
          "type": "address"
        },
        {
          "indexed": true,
          "internalType": "address",
          "name": "spender",
          "type": "address"
        },
        {
          "indexed": false,
          "internalType": "uint256",
          "name": "value",
          "type": "uint256"
        }
      ],
      "name": "Approval",
      "type": "event"
    },
    {
      "anonymous": false,
      "inputs": [
        {
          "indexed": true,
          "internalType": "address",
          "name": "from",
          "type": "address"
        },
        {
          "indexed": true,
          "internalType": "address",
          "name": "to",
          "type": "address"
        },
        {
          "indexed": false,
          "internalType": "uint256",
          "name": "value",
          "type": "uint256"
        }
      ],
      "name": "Transfer",
      "type": "event"
    },
    {
      "anonymous": false,
      "inputs": [
        {
          "indexed": false,
          "internalType": "address",
          "name": "sender",
          "type": "address"
        },
        {
          "indexed": false,
          "internalType": "address",
          "name": "recipient",
          "type": "address"
        },
        {
          "indexed": false,
          "internalType": "uint256",
          "name": "amount",
          "type": "uint256"
        },
        {
          "indexed": false,
          "internalType": "string",
          "name": "message",
          "type": "string"
        },
        {
          "indexed": false,
          "internalType": "uint256",
          "name": "datetime",
          "type": "uint256"
        }
      ],
      "name": "Transfer",
      "type": "event"
    },
    {
      "inputs": [],
      "name": "_owner",
      "outputs": [
        {
          "internalType": "address",
          "name": "",
          "type": "address"
        }
      ],
      "stateMutability": "view",
      "type": "function"
    },
    {
      "inputs": [
        {
          "internalType": "uint256",
          "name": "amount",
          "type": "uint256"
        }
      ],
      "name": "addToReversePool",
      "outputs": [],
      "stateMutability": "nonpayable",
      "type": "function"
    },
    {
      "inputs": [
        {
          "internalType": "address",
          "name": "owner",
          "type": "address"
        },
        {
          "internalType": "address",
          "name": "spender",
          "type": "address"
        }
      ],
      "name": "allowance",
      "outputs": [
        {
          "internalType": "uint256",
          "name": "",
          "type": "uint256"
        }
      ],
      "stateMutability": "view",
      "type": "function"
    },
    {
      "inputs": [
        {
          "internalType": "address",
          "name": "spender",
          "type": "address"
        },
        {
          "internalType": "uint256",
          "name": "value",
          "type": "uint256"
        }
      ],
      "name": "approve",
      "outputs": [
        {
          "internalType": "bool",
          "name": "",
          "type": "bool"
        }
      ],
      "stateMutability": "nonpayable",
      "type": "function"
    },
    {
      "inputs": [
        {
          "internalType": "address",
          "name": "account",
          "type": "address"
        }
      ],
      "name": "balanceOf",
      "outputs": [
        {
          "internalType": "uint256",
          "name": "",
          "type": "uint256"
        }
      ],
      "stateMutability": "view",
      "type": "function"
    },
    {
      "inputs": [],
      "name": "cap",
      "outputs": [
        {
          "internalType": "uint256",
          "name": "",
          "type": "uint256"
        }
      ],
      "stateMutability": "view",
      "type": "function"
    },
    {
      "inputs": [],
      "name": "decimals",
      "outputs": [
        {
          "internalType": "uint8",
          "name": "",
          "type": "uint8"
        }
      ],
      "stateMutability": "view",
      "type": "function"
    },
    {
      "inputs": [
        {
          "internalType": "address payable",
          "name": "recipient",
          "type": "address"
        },
        {
          "internalType": "uint256",
          "name": "amount",
          "type": "uint256"
        },
        {
          "internalType": "string",
          "name": "message",
          "type": "string"
        }
      ],
      "name": "deployToBlockchain",
      "outputs": [],
      "stateMutability": "nonpayable",
      "type": "function"
    },
    {
      "inputs": [
        {
          "internalType": "uint256",
          "name": "",
          "type": "uint256"
        }
      ],
      "name": "fraudulentUserAddresses",
      "outputs": [
        {
          "internalType": "address",
          "name": "",
          "type": "address"
        }
      ],
      "stateMutability": "view",
      "type": "function"
    },
    {
      "inputs": [
        {
          "internalType": "uint256",
          "name": "",
          "type": "uint256"
        }
      ],
      "name": "frozenAddresses",
      "outputs": [
        {
          "internalType": "address",
          "name": "",
          "type": "address"
        }
      ],
      "stateMutability": "view",
      "type": "function"
    },
    {
      "inputs": [],
      "name": "getAllFraudulentUsers",
      "outputs": [
        {
          "internalType": "address[]",
          "name": "",
          "type": "address[]"
        }
      ],
      "stateMutability": "view",
      "type": "function"
    },
    {
      "inputs": [],
      "name": "getAllFrozenUsers",
      "outputs": [
        {
          "internalType": "address[]",
          "name": "",
          "type": "address[]"
        }
      ],
      "stateMutability": "view",
      "type": "function"
    },
    {
      "inputs": [],
      "name": "getAllTransactions",
      "outputs": [
        {
          "components": [
            {
              "internalType": "address",
              "name": "sender",
              "type": "address"
            },
            {
              "internalType": "address",
              "name": "recipient",
              "type": "address"
            },
            {
              "internalType": "uint256",
              "name": "amount",
              "type": "uint256"
            },
            {
              "internalType": "string",
              "name": "message",
              "type": "string"
            },
            {
              "internalType": "uint256",
              "name": "datetime",
              "type": "uint256"
            }
          ],
          "internalType": "struct FoterreToken.TransactionDetail[]",
          "name": "",
          "type": "tuple[]"
        }
      ],
      "stateMutability": "view",
      "type": "function"
    },
    {
      "inputs": [
        {
          "internalType": "address",
          "name": "target",
          "type": "address"
        }
      ],
      "name": "getFraudulentUserReportCount",
      "outputs": [
        {
          "internalType": "uint256",
          "name": "",
          "type": "uint256"
        }
      ],
      "stateMutability": "view",
      "type": "function"
    },
    {
      "inputs": [],
      "name": "getTransactionCount",
      "outputs": [
        {
          "internalType": "uint256",
          "name": "",
          "type": "uint256"
        }
      ],
      "stateMutability": "view",
      "type": "function"
    },
    {
      "inputs": [
        {
          "internalType": "address",
          "name": "target",
          "type": "address"
        }
      ],
      "name": "isFraudulentUser",
      "outputs": [
        {
          "internalType": "bool",
          "name": "",
          "type": "bool"
        }
      ],
      "stateMutability": "view",
      "type": "function"
    },
    {
      "inputs": [],
      "name": "marketSupply",
      "outputs": [
        {
          "internalType": "uint256",
          "name": "",
          "type": "uint256"
        }
      ],
      "stateMutability": "view",
      "type": "function"
    },
    {
      "inputs": [],
      "name": "name",
      "outputs": [
        {
          "internalType": "string",
          "name": "",
          "type": "string"
        }
      ],
      "stateMutability": "view",
      "type": "function"
    },
    {
      "inputs": [],
      "name": "ownerToken",
      "outputs": [
        {
          "internalType": "uint256",
          "name": "",
          "type": "uint256"
        }
      ],
      "stateMutability": "view",
      "type": "function"
    },
    {
      "inputs": [
        {
          "internalType": "address",
          "name": "target",
          "type": "address"
        },
        {
          "internalType": "uint256",
          "name": "amount",
          "type": "uint256"
        }
      ],
      "name": "reportForReverse",
      "outputs": [],
      "stateMutability": "nonpayable",
      "type": "function"
    },
    {
      "inputs": [
        {
          "internalType": "address",
          "name": "target",
          "type": "address"
        }
      ],
      "name": "restrictAccountAccess",
      "outputs": [],
      "stateMutability": "nonpayable",
      "type": "function"
    },
    {
      "inputs": [],
      "name": "reverseTransactionSupply",
      "outputs": [
        {
          "internalType": "uint256",
          "name": "",
          "type": "uint256"
        }
      ],
      "stateMutability": "view",
      "type": "function"
    },
    {
      "inputs": [],
      "name": "symbol",
      "outputs": [
        {
          "internalType": "string",
          "name": "",
          "type": "string"
        }
      ],
      "stateMutability": "view",
      "type": "function"
    },
    {
      "inputs": [],
      "name": "totalSupply",
      "outputs": [
        {
          "internalType": "uint256",
          "name": "",
          "type": "uint256"
        }
      ],
      "stateMutability": "view",
      "type": "function"
    },
    {
      "inputs": [
        {
          "internalType": "address",
          "name": "to",
          "type": "address"
        },
        {
          "internalType": "uint256",
          "name": "amount",
          "type": "uint256"
        }
      ],
      "name": "transfer",
      "outputs": [
        {
          "internalType": "bool",
          "name": "",
          "type": "bool"
        }
      ],
      "stateMutability": "nonpayable",
      "type": "function"
    },
    {
      "inputs": [
        {
          "internalType": "address",
          "name": "from",
          "type": "address"
        },
        {
          "internalType": "address",
          "name": "to",
          "type": "address"
        },
        {
          "internalType": "uint256",
          "name": "value",
          "type": "uint256"
        }
      ],
      "name": "transferFrom",
      "outputs": [
        {
          "internalType": "bool",
          "name": "",
          "type": "bool"
        }
      ],
      "stateMutability": "nonpayable",
      "type": "function"
    },
    {
      "inputs": [
        {
          "internalType": "uint256",
          "name": "amount",
          "type": "uint256"
        }
      ],
      "name": "userDeposit",
      "outputs": [],
      "stateMutability": "nonpayable",
      "type": "function"
    },
    {
      "inputs": [
        {
          "internalType": "uint256",
          "name": "amount",
          "type": "uint256"
        }
      ],
      "name": "userWithdrawal",
      "outputs": [],
      "stateMutability": "nonpayable",
      "type": "function"
    }
  ],
  "bytecode": "0x60c06040523480156200001157600080fd5b5060405162003a6238038062003a6283398181016040528101906200003791906200059a565b670de0b6b3a7640000816200004d9190620005fb565b6040518060400160405280600781526020017f466f7465727265000000000000000000000000000000000000000000000000008152506040518060400160405280600481526020017f464f5445000000000000000000000000000000000000000000000000000000008152508160039081620000ca9190620008b6565b508060049081620000dc9190620008b6565b50505060008103620001285760006040517f392e1e270000000000000000000000000000000000000000000000000000000081526004016200011f9190620009e0565b60405180910390fd5b8060808181525050503373ffffffffffffffffffffffffffffffffffffffff1660a08173ffffffffffffffffffffffffffffffffffffffff168152505060006c0183bdac6ae9bc1c8cc0000000905060006b60ef6b1aba6f07233000000090508160058190555080600781905550620001aa60a05183620001c760201b60201c565b620001be60a05182620001c760201b60201c565b50505062000b32565b600073ffffffffffffffffffffffffffffffffffffffff168273ffffffffffffffffffffffffffffffffffffffff16036200023c5760006040517fec442f0500000000000000000000000000000000000000000000000000000000815260040162000233919062000a42565b60405180910390fd5b62000250600083836200025460201b60201c565b5050565b620002678383836200031660201b60201c565b600073ffffffffffffffffffffffffffffffffffffffff168373ffffffffffffffffffffffffffffffffffffffff160362000311576000620002ae6200054660201b60201c565b90506000620002c26200055060201b60201c565b9050818111156200030e5780826040517f9e79f8540000000000000000000000000000000000000000000000000000000081526004016200030592919062000a70565b60405180910390fd5b50505b505050565b600073ffffffffffffffffffffffffffffffffffffffff168373ffffffffffffffffffffffffffffffffffffffff16036200036c5780600260008282546200035f919062000a9d565b9250508190555062000442565b60008060008573ffffffffffffffffffffffffffffffffffffffff1673ffffffffffffffffffffffffffffffffffffffff16815260200190815260200160002054905081811015620003fb578381836040517fe450d38c000000000000000000000000000000000000000000000000000000008152600401620003f29392919062000ad8565b60405180910390fd5b8181036000808673ffffffffffffffffffffffffffffffffffffffff1673ffffffffffffffffffffffffffffffffffffffff16815260200190815260200160002081905550505b600073ffffffffffffffffffffffffffffffffffffffff168273ffffffffffffffffffffffffffffffffffffffff16036200048d5780600260008282540392505081905550620004da565b806000808473ffffffffffffffffffffffffffffffffffffffff1673ffffffffffffffffffffffffffffffffffffffff168152602001908152602001600020600082825401925050819055505b8173ffffffffffffffffffffffffffffffffffffffff168373ffffffffffffffffffffffffffffffffffffffff167fddf252ad1be2c89b69c2b068fc378daa952ba7f163c4a11628f55a4df523b3ef8360405162000539919062000b15565b60405180910390a3505050565b6000608051905090565b6000600254905090565b600080fd5b6000819050919050565b62000574816200055f565b81146200058057600080fd5b50565b600081519050620005948162000569565b92915050565b600060208284031215620005b357620005b26200055a565b5b6000620005c38482850162000583565b91505092915050565b7f4e487b7100000000000000000000000000000000000000000000000000000000600052601160045260246000fd5b600062000608826200055f565b915062000615836200055f565b925082820262000625816200055f565b915082820484148315176200063f576200063e620005cc565b5b5092915050565b600081519050919050565b7f4e487b7100000000000000000000000000000000000000000000000000000000600052604160045260246000fd5b7f4e487b7100000000000000000000000000000000000000000000000000000000600052602260045260246000fd5b60006002820490506001821680620006c857607f821691505b602082108103620006de57620006dd62000680565b5b50919050565b60008190508160005260206000209050919050565b60006020601f8301049050919050565b600082821b905092915050565b600060088302620007487fffffffffffffffffffffffffffffffffffffffffffffffffffffffffffffffff8262000709565b62000754868362000709565b95508019841693508086168417925050509392505050565b6000819050919050565b600062000797620007916200078b846200055f565b6200076c565b6200055f565b9050919050565b6000819050919050565b620007b38362000776565b620007cb620007c2826200079e565b84845462000716565b825550505050565b600090565b620007e2620007d3565b620007ef818484620007a8565b505050565b5b8181101562000817576200080b600082620007d8565b600181019050620007f5565b5050565b601f82111562000866576200083081620006e4565b6200083b84620006f9565b810160208510156200084b578190505b620008636200085a85620006f9565b830182620007f4565b50505b505050565b600082821c905092915050565b60006200088b600019846008026200086b565b1980831691505092915050565b6000620008a6838362000878565b9150826002028217905092915050565b620008c18262000646565b67ffffffffffffffff811115620008dd57620008dc62000651565b5b620008e98254620006af565b620008f68282856200081b565b600060209050601f8311600181146200092e576000841562000919578287015190505b62000925858262000898565b86555062000995565b601f1984166200093e86620006e4565b60005b82811015620009685784890151825560018201915060208501945060208101905062000941565b8683101562000988578489015162000984601f89168262000878565b8355505b6001600288020188555050505b505050505050565b6000819050919050565b6000620009c8620009c2620009bc846200099d565b6200076c565b6200055f565b9050919050565b620009da81620009a7565b82525050565b6000602082019050620009f76000830184620009cf565b92915050565b600073ffffffffffffffffffffffffffffffffffffffff82169050919050565b600062000a2a82620009fd565b9050919050565b62000a3c8162000a1d565b82525050565b600060208201905062000a59600083018462000a31565b92915050565b62000a6a816200055f565b82525050565b600060408201905062000a87600083018562000a5f565b62000a96602083018462000a5f565b9392505050565b600062000aaa826200055f565b915062000ab7836200055f565b925082820190508082111562000ad25762000ad1620005cc565b5b92915050565b600060608201905062000aef600083018662000a31565b62000afe602083018562000a5f565b62000b0d604083018462000a5f565b949350505050565b600060208201905062000b2c600083018462000a5f565b92915050565b60805160a051612ee762000b7b600039600081816111f801528181611268015281816116140152818161184e015281816118f50152611b2401526000610a2d0152612ee76000f3fe608060405234801561001057600080fd5b50600436106101c45760003560e01c806370a08231116100f9578063bada6e2311610097578063dd62ed3e11610071578063dd62ed3e1461050f578063e80a4d581461053f578063f09c69c71461056f578063f868e7661461058b576101c4565b8063bada6e23146104a5578063bafb8e83146104c1578063dcf6ea88146104df576101c4565b806390aaafb3116100d357806390aaafb31461041d57806395d89b4114610439578063a9059cbb14610457578063b2bdfa7b14610487576101c4565b806370a08231146103b557806385805723146103e55780638d1aadbf14610401576101c4565b806327506f5311610166578063313ce56711610140578063313ce5671461032b578063355274ea146103495780635506ed44146103675780636537188314610397576101c4565b806327506f53146102d15780632e7700f0146102ef5780632e9c3d941461030d576101c4565b806318160ddd116101a257806318160ddd1461023557806319a3c68d146102535780631e36aa631461028357806323b872dd146102a1576101c4565b8063044d1d4c146101c957806306fdde03146101e7578063095ea7b314610205575b600080fd5b6101d16105a7565b6040516101de919061202c565b60405180910390f35b6101ef6105ad565b6040516101fc91906120d7565b60405180910390f35b61021f600480360381019061021a9190612197565b61063f565b60405161022c91906121f2565b60405180910390f35b61023d610662565b60405161024a919061202c565b60405180910390f35b61026d6004803603810190610268919061220d565b61066c565b60405161027a91906121f2565b60405180910390f35b61028b61071a565b60405161029891906122f8565b60405180910390f35b6102bb60048036038101906102b6919061231a565b6107a8565b6040516102c891906121f2565b60405180910390f35b6102d96107d7565b6040516102e691906124fe565b60405180910390f35b6102f7610988565b604051610304919061202c565b60405180910390f35b610315610992565b60405161032291906122f8565b60405180910390f35b610333610a20565b604051610340919061253c565b60405180910390f35b610351610a29565b60405161035e919061202c565b60405180910390f35b610381600480360381019061037c9190612557565b610a51565b60405161038e9190612593565b60405180910390f35b61039f610a90565b6040516103ac919061202c565b60405180910390f35b6103cf60048036038101906103ca919061220d565b610a96565b6040516103dc919061202c565b60405180910390f35b6103ff60048036038101906103fa9190612721565b610ade565b005b61041b60048036038101906104169190612197565b610d90565b005b6104376004803603810190610432919061220d565b610f9b565b005b610441611018565b60405161044e91906120d7565b60405180910390f35b610471600480360381019061046c9190612197565b6110aa565b60405161047e91906121f2565b60405180910390f35b61048f6111f6565b60405161049c9190612593565b60405180910390f35b6104bf60048036038101906104ba9190612557565b61121a565b005b6104c9611290565b6040516104d6919061202c565b60405180910390f35b6104f960048036038101906104f4919061220d565b611296565b604051610506919061202c565b60405180910390f35b61052960048036038101906105249190612790565b61134a565b604051610536919061202c565b60405180910390f35b61055960048036038101906105549190612557565b6113d1565b6040516105669190612593565b60405180910390f35b61058960048036038101906105849190612557565b611410565b005b6105a560048036038101906105a09190612557565b61163d565b005b60075481565b6060600380546105bc906127ff565b80601f01602080910402602001604051908101604052809291908181526020018280546105e8906127ff565b80156106355780601f1061060a57610100808354040283529160200191610635565b820191906000526020600020905b81548152906001019060200180831161061857829003601f168201915b5050505050905090565b60008061064a61191f565b9050610657818585611927565b600191505092915050565b6000600254905090565b600080600090505b60098054905081101561070f578273ffffffffffffffffffffffffffffffffffffffff16600982815481106106ac576106ab612830565b5b9060005260206000200160009054906101000a900473ffffffffffffffffffffffffffffffffffffffff1673ffffffffffffffffffffffffffffffffffffffff16036106fc576001915050610715565b80806107079061288e565b915050610674565b50600090505b919050565b6060600980548060200260200160405190810160405280929190818152602001828054801561079e57602002820191906000526020600020905b8160009054906101000a900473ffffffffffffffffffffffffffffffffffffffff1673ffffffffffffffffffffffffffffffffffffffff1681526020019060010190808311610754575b5050505050905090565b6000806107b361191f565b90506107c0858285611939565b6107cb8585856119cd565b60019150509392505050565b6060600d805480602002602001604051908101604052809291908181526020016000905b8282101561097f57838290600052602060002090600502016040518060a00160405290816000820160009054906101000a900473ffffffffffffffffffffffffffffffffffffffff1673ffffffffffffffffffffffffffffffffffffffff1673ffffffffffffffffffffffffffffffffffffffff1681526020016001820160009054906101000a900473ffffffffffffffffffffffffffffffffffffffff1673ffffffffffffffffffffffffffffffffffffffff1673ffffffffffffffffffffffffffffffffffffffff168152602001600282015481526020016003820180546108e4906127ff565b80601f0160208091040260200160405190810160405280929190818152602001828054610910906127ff565b801561095d5780601f106109325761010080835404028352916020019161095d565b820191906000526020600020905b81548152906001019060200180831161094057829003601f168201915b50505050508152602001600482015481525050815260200190600101906107fb565b50505050905090565b6000600854905090565b6060600a805480602002602001604051908101604052809291908181526020018280548015610a1657602002820191906000526020600020905b8160009054906101000a900473ffffffffffffffffffffffffffffffffffffffff1673ffffffffffffffffffffffffffffffffffffffff16815260200190600101908083116109cc575b5050505050905090565b60006012905090565b60007f0000000000000000000000000000000000000000000000000000000000000000905090565b600a8181548110610a6157600080fd5b906000526020600020016000915054906101000a900473ffffffffffffffffffffffffffffffffffffffff1681565b60055481565b60008060008373ffffffffffffffffffffffffffffffffffffffff1673ffffffffffffffffffffffffffffffffffffffff168152602001908152602001600020549050919050565b60005b600a80549050811015610bf9573373ffffffffffffffffffffffffffffffffffffffff16600a8281548110610b1957610b18612830565b5b9060005260206000200160009054906101000a900473ffffffffffffffffffffffffffffffffffffffff1673ffffffffffffffffffffffffffffffffffffffff1603610be6573373ffffffffffffffffffffffffffffffffffffffff167f95e4151200d357a599dac39756b80fcd6d76fd3d5b74d6adef1dad12411f27e3604051610ba390612922565b60405180910390a26040517fc033214d000000000000000000000000000000000000000000000000000000008152600401610bdd90612922565b60405180910390fd5b8080610bf19061288e565b915050610ae1565b50600160086000828254610c0d9190612942565b92505081905550600d6040518060a001604052803373ffffffffffffffffffffffffffffffffffffffff1681526020018573ffffffffffffffffffffffffffffffffffffffff16815260200184815260200183815260200142815250908060018154018082558091505060019003906000526020600020906005020160009091909190915060008201518160000160006101000a81548173ffffffffffffffffffffffffffffffffffffffff021916908373ffffffffffffffffffffffffffffffffffffffff16021790555060208201518160010160006101000a81548173ffffffffffffffffffffffffffffffffffffffff021916908373ffffffffffffffffffffffffffffffffffffffff160217905550604082015181600201556060820151816003019081610d3f9190612b22565b506080820151816004015550507fc4b32d7ff75a51e487f3cbb5d3202f2efecca1f4c2b987e0039c1d3220b48a833384848442604051610d83959493929190612c49565b60405180910390a1505050565b60005b600a80549050811015610eab573373ffffffffffffffffffffffffffffffffffffffff16600a8281548110610dcb57610dca612830565b5b9060005260206000200160009054906101000a900473ffffffffffffffffffffffffffffffffffffffff1673ffffffffffffffffffffffffffffffffffffffff1603610e98573373ffffffffffffffffffffffffffffffffffffffff167f95e4151200d357a599dac39756b80fcd6d76fd3d5b74d6adef1dad12411f27e3604051610e5590612922565b60405180910390a26040517fc033214d000000000000000000000000000000000000000000000000000000008152600401610e8f90612922565b60405180910390fd5b8080610ea39061288e565b915050610d93565b50670de0b6b3a764000081610ec09190612ca3565b9050600754811115610f07576040517f08c379a0000000000000000000000000000000000000000000000000000000008152600401610efe90612d31565b60405180910390fd5b6009829080600181540180825580915050600190039060005260206000200160009091909190916101000a81548173ffffffffffffffffffffffffffffffffffffffff021916908373ffffffffffffffffffffffffffffffffffffffff1602179055506001600c6000828254610f7d9190612942565b92505081905550610f8e3382611ac1565b610f9782610f9b565b5050565b6000610fa682611296565b90506003811061101457600a829080600181540180825580915050600190039060005260206000200160009091909190916101000a81548173ffffffffffffffffffffffffffffffffffffffff021916908373ffffffffffffffffffffffffffffffffffffffff1602179055505b5050565b606060048054611027906127ff565b80601f0160208091040260200160405190810160405280929190818152602001828054611053906127ff565b80156110a05780601f10611075576101008083540402835291602001916110a0565b820191906000526020600020905b81548152906001019060200180831161108357829003601f168201915b5050505050905090565b600080600090505b600a805490508110156111ca573373ffffffffffffffffffffffffffffffffffffffff16600a82815481106110ea576110e9612830565b5b9060005260206000200160009054906101000a900473ffffffffffffffffffffffffffffffffffffffff1673ffffffffffffffffffffffffffffffffffffffff16036111b7573373ffffffffffffffffffffffffffffffffffffffff167f95e4151200d357a599dac39756b80fcd6d76fd3d5b74d6adef1dad12411f27e360405161117490612922565b60405180910390a26040517fc033214d0000000000000000000000000000000000000000000000000000000081526004016111ae90612922565b60405180910390fd5b80806111c29061288e565b9150506110b2565b50670de0b6b3a7640000826111df9190612ca3565b91506111eb8383611b4e565b506001905092915050565b7f000000000000000000000000000000000000000000000000000000000000000081565b670de0b6b3a76400008161122e9190612ca3565b905080600660008282546112429190612d51565b92505081905550806007600082825461125b9190612942565b9250508190555061128d337f0000000000000000000000000000000000000000000000000000000000000000836119cd565b50565b60065481565b6000806000905060005b600980549050811015611340578373ffffffffffffffffffffffffffffffffffffffff16600982815481106112d8576112d7612830565b5b9060005260206000200160009054906101000a900473ffffffffffffffffffffffffffffffffffffffff1673ffffffffffffffffffffffffffffffffffffffff160361132d5781806113299061288e565b9250505b80806113389061288e565b9150506112a0565b5080915050919050565b6000600160008473ffffffffffffffffffffffffffffffffffffffff1673ffffffffffffffffffffffffffffffffffffffff16815260200190815260200160002060008373ffffffffffffffffffffffffffffffffffffffff1673ffffffffffffffffffffffffffffffffffffffff16815260200190815260200160002054905092915050565b600981815481106113e157600080fd5b906000526020600020016000915054906101000a900473ffffffffffffffffffffffffffffffffffffffff1681565b60005b600a8054905081101561152b573373ffffffffffffffffffffffffffffffffffffffff16600a828154811061144b5761144a612830565b5b9060005260206000200160009054906101000a900473ffffffffffffffffffffffffffffffffffffffff1673ffffffffffffffffffffffffffffffffffffffff1603611518573373ffffffffffffffffffffffffffffffffffffffff167f95e4151200d357a599dac39756b80fcd6d76fd3d5b74d6adef1dad12411f27e36040516114d590612922565b60405180910390a26040517fc033214d00000000000000000000000000000000000000000000000000000000815260040161150f90612922565b60405180910390fd5b80806115239061288e565b915050611413565b50670de0b6b3a7640000816115409190612ca3565b905061154b3361066c565b156115dc57606460148261155f9190612ca3565b6115699190612db4565b600b81905550606460508261157e9190612ca3565b6115889190612db4565b9050806006600082825461159c9190612d51565b9250508190555080600560008282546115b59190612942565b92505081905550600b54600760008282546115d09190612942565b9250508190555061163a565b80600660008282546115ee9190612d51565b9250508190555080600560008282546116079190612942565b92505081905550611639337f0000000000000000000000000000000000000000000000000000000000000000836119cd565b5b50565b60005b600a80549050811015611758573373ffffffffffffffffffffffffffffffffffffffff16600a828154811061167857611677612830565b5b9060005260206000200160009054906101000a900473ffffffffffffffffffffffffffffffffffffffff1673ffffffffffffffffffffffffffffffffffffffff1603611745573373ffffffffffffffffffffffffffffffffffffffff167f95e4151200d357a599dac39756b80fcd6d76fd3d5b74d6adef1dad12411f27e360405161170290612922565b60405180910390a26040517fc033214d00000000000000000000000000000000000000000000000000000000815260040161173c90612922565b60405180910390fd5b80806117509061288e565b915050611640565b50670de0b6b3a76400008161176d9190612ca3565b90506117783361066c565b15611879576005548111156117c2576040517f08c379a00000000000000000000000000000000000000000000000000000000081526004016117b990612e31565b60405180910390fd5b60646014826117d19190612ca3565b6117db9190612db4565b600b8190555060646050826117f09190612ca3565b6117fa9190612db4565b9050806005600082825461180e9190612d51565b9250508190555080600660008282546118279190612942565b92505081905550600b54600760008282546118429190612942565b925050819055506118747f000000000000000000000000000000000000000000000000000000000000000033836119cd565b61191c565b6005548111156118be576040517f08c379a00000000000000000000000000000000000000000000000000000000081526004016118b590612e31565b60405180910390fd5b80600560008282546118d09190612d51565b9250508190555080600660008282546118e99190612942565b9250508190555061191b7f000000000000000000000000000000000000000000000000000000000000000033836119cd565b5b50565b600033905090565b6119348383836001611b71565b505050565b6000611945848461134a565b90507fffffffffffffffffffffffffffffffffffffffffffffffffffffffffffffffff81146119c757818110156119b7578281836040517ffb8f41b20000000000000000000000000000000000000000000000000000000081526004016119ae93929190612e51565b60405180910390fd5b6119c684848484036000611b71565b5b50505050565b600073ffffffffffffffffffffffffffffffffffffffff168373ffffffffffffffffffffffffffffffffffffffff1603611a3f5760006040517f96c6fd1e000000000000000000000000000000000000000000000000000000008152600401611a369190612593565b60405180910390fd5b600073ffffffffffffffffffffffffffffffffffffffff168273ffffffffffffffffffffffffffffffffffffffff1603611ab15760006040517fec442f05000000000000000000000000000000000000000000000000000000008152600401611aa89190612593565b60405180910390fd5b611abc838383611d48565b505050565b600754811115611b06576040517f08c379a0000000000000000000000000000000000000000000000000000000008152600401611afd90612d31565b60405180910390fd5b8060076000828254611b189190612d51565b92505081905550611b4a7f000000000000000000000000000000000000000000000000000000000000000083836119cd565b5050565b600080611b5961191f565b9050611b668185856119cd565b600191505092915050565b600073ffffffffffffffffffffffffffffffffffffffff168473ffffffffffffffffffffffffffffffffffffffff1603611be35760006040517fe602df05000000000000000000000000000000000000000000000000000000008152600401611bda9190612593565b60405180910390fd5b600073ffffffffffffffffffffffffffffffffffffffff168373ffffffffffffffffffffffffffffffffffffffff1603611c555760006040517f94280d62000000000000000000000000000000000000000000000000000000008152600401611c4c9190612593565b60405180910390fd5b81600160008673ffffffffffffffffffffffffffffffffffffffff1673ffffffffffffffffffffffffffffffffffffffff16815260200190815260200160002060008573ffffffffffffffffffffffffffffffffffffffff1673ffffffffffffffffffffffffffffffffffffffff168152602001908152602001600020819055508015611d42578273ffffffffffffffffffffffffffffffffffffffff168473ffffffffffffffffffffffffffffffffffffffff167f8c5be1e5ebec7d5bd14f71427d1e84f3dd0314c0f7b2291e5b200ac8c7c3b92584604051611d39919061202c565b60405180910390a35b50505050565b611d53838383611dee565b600073ffffffffffffffffffffffffffffffffffffffff168373ffffffffffffffffffffffffffffffffffffffff1603611de9576000611d91610a29565b90506000611d9d610662565b905081811115611de65780826040517f9e79f854000000000000000000000000000000000000000000000000000000008152600401611ddd929190612e88565b60405180910390fd5b50505b505050565b600073ffffffffffffffffffffffffffffffffffffffff168373ffffffffffffffffffffffffffffffffffffffff1603611e40578060026000828254611e349190612942565b92505081905550611f13565b60008060008573ffffffffffffffffffffffffffffffffffffffff1673ffffffffffffffffffffffffffffffffffffffff16815260200190815260200160002054905081811015611ecc578381836040517fe450d38c000000000000000000000000000000000000000000000000000000008152600401611ec393929190612e51565b60405180910390fd5b8181036000808673ffffffffffffffffffffffffffffffffffffffff1673ffffffffffffffffffffffffffffffffffffffff16815260200190815260200160002081905550505b600073ffffffffffffffffffffffffffffffffffffffff168273ffffffffffffffffffffffffffffffffffffffff1603611f5c5780600260008282540392505081905550611fa9565b806000808473ffffffffffffffffffffffffffffffffffffffff1673ffffffffffffffffffffffffffffffffffffffff168152602001908152602001600020600082825401925050819055505b8173ffffffffffffffffffffffffffffffffffffffff168373ffffffffffffffffffffffffffffffffffffffff167fddf252ad1be2c89b69c2b068fc378daa952ba7f163c4a11628f55a4df523b3ef83604051612006919061202c565b60405180910390a3505050565b6000819050919050565b61202681612013565b82525050565b6000602082019050612041600083018461201d565b92915050565b600081519050919050565b600082825260208201905092915050565b60005b83811015612081578082015181840152602081019050612066565b60008484015250505050565b6000601f19601f8301169050919050565b60006120a982612047565b6120b38185612052565b93506120c3818560208601612063565b6120cc8161208d565b840191505092915050565b600060208201905081810360008301526120f1818461209e565b905092915050565b6000604051905090565b600080fd5b600080fd5b600073ffffffffffffffffffffffffffffffffffffffff82169050919050565b60006121388261210d565b9050919050565b6121488161212d565b811461215357600080fd5b50565b6000813590506121658161213f565b92915050565b61217481612013565b811461217f57600080fd5b50565b6000813590506121918161216b565b92915050565b600080604083850312156121ae576121ad612103565b5b60006121bc85828601612156565b92505060206121cd85828601612182565b9150509250929050565b60008115159050919050565b6121ec816121d7565b82525050565b600060208201905061220760008301846121e3565b92915050565b60006020828403121561222357612222612103565b5b600061223184828501612156565b91505092915050565b600081519050919050565b600082825260208201905092915050565b6000819050602082019050919050565b61226f8161212d565b82525050565b60006122818383612266565b60208301905092915050565b6000602082019050919050565b60006122a58261223a565b6122af8185612245565b93506122ba83612256565b8060005b838110156122eb5781516122d28882612275565b97506122dd8361228d565b9250506001810190506122be565b5085935050505092915050565b60006020820190508181036000830152612312818461229a565b905092915050565b60008060006060848603121561233357612332612103565b5b600061234186828701612156565b935050602061235286828701612156565b925050604061236386828701612182565b9150509250925092565b600081519050919050565b600082825260208201905092915050565b6000819050602082019050919050565b6123a281612013565b82525050565b600082825260208201905092915050565b60006123c482612047565b6123ce81856123a8565b93506123de818560208601612063565b6123e78161208d565b840191505092915050565b600060a08301600083015161240a6000860182612266565b50602083015161241d6020860182612266565b5060408301516124306040860182612399565b506060830151848203606086015261244882826123b9565b915050608083015161245d6080860182612399565b508091505092915050565b600061247483836123f2565b905092915050565b6000602082019050919050565b60006124948261236d565b61249e8185612378565b9350836020820285016124b085612389565b8060005b858110156124ec57848403895281516124cd8582612468565b94506124d88361247c565b925060208a019950506001810190506124b4565b50829750879550505050505092915050565b600060208201905081810360008301526125188184612489565b905092915050565b600060ff82169050919050565b61253681612520565b82525050565b6000602082019050612551600083018461252d565b92915050565b60006020828403121561256d5761256c612103565b5b600061257b84828501612182565b91505092915050565b61258d8161212d565b82525050565b60006020820190506125a86000830184612584565b92915050565b60006125b98261210d565b9050919050565b6125c9816125ae565b81146125d457600080fd5b50565b6000813590506125e6816125c0565b92915050565b600080fd5b600080fd5b7f4e487b7100000000000000000000000000000000000000000000000000000000600052604160045260246000fd5b61262e8261208d565b810181811067ffffffffffffffff8211171561264d5761264c6125f6565b5b80604052505050565b60006126606120f9565b905061266c8282612625565b919050565b600067ffffffffffffffff82111561268c5761268b6125f6565b5b6126958261208d565b9050602081019050919050565b82818337600083830152505050565b60006126c46126bf84612671565b612656565b9050828152602081018484840111156126e0576126df6125f1565b5b6126eb8482856126a2565b509392505050565b600082601f830112612708576127076125ec565b5b81356127188482602086016126b1565b91505092915050565b60008060006060848603121561273a57612739612103565b5b6000612748868287016125d7565b935050602061275986828701612182565b925050604084013567ffffffffffffffff81111561277a57612779612108565b5b612786868287016126f3565b9150509250925092565b600080604083850312156127a7576127a6612103565b5b60006127b585828601612156565b92505060206127c685828601612156565b9150509250929050565b7f4e487b7100000000000000000000000000000000000000000000000000000000600052602260045260246000fd5b6000600282049050600182168061281757607f821691505b60208210810361282a576128296127d0565b5b50919050565b7f4e487b7100000000000000000000000000000000000000000000000000000000600052603260045260246000fd5b7f4e487b7100000000000000000000000000000000000000000000000000000000600052601160045260246000fd5b600061289982612013565b91507fffffffffffffffffffffffffffffffffffffffffffffffffffffffffffffffff82036128cb576128ca61285f565b5b600182019050919050565b7f596f7572206163636f756e7420686173206265656e2066726f7a656e00000000600082015250565b600061290c601c83612052565b9150612917826128d6565b602082019050919050565b6000602082019050818103600083015261293b816128ff565b9050919050565b600061294d82612013565b915061295883612013565b92508282019050808211156129705761296f61285f565b5b92915050565b60008190508160005260206000209050919050565b60006020601f8301049050919050565b600082821b905092915050565b6000600883026129d87fffffffffffffffffffffffffffffffffffffffffffffffffffffffffffffffff8261299b565b6129e2868361299b565b95508019841693508086168417925050509392505050565b6000819050919050565b6000612a1f612a1a612a1584612013565b6129fa565b612013565b9050919050565b6000819050919050565b612a3983612a04565b612a4d612a4582612a26565b8484546129a8565b825550505050565b600090565b612a62612a55565b612a6d818484612a30565b505050565b5b81811015612a9157612a86600082612a5a565b600181019050612a73565b5050565b601f821115612ad657612aa781612976565b612ab08461298b565b81016020851015612abf578190505b612ad3612acb8561298b565b830182612a72565b50505b505050565b600082821c905092915050565b6000612af960001984600802612adb565b1980831691505092915050565b6000612b128383612ae8565b9150826002028217905092915050565b612b2b82612047565b67ffffffffffffffff811115612b4457612b436125f6565b5b612b4e82546127ff565b612b59828285612a95565b600060209050601f831160018114612b8c5760008415612b7a578287015190505b612b848582612b06565b865550612bec565b601f198416612b9a86612976565b60005b82811015612bc257848901518255600182019150602085019450602081019050612b9d565b86831015612bdf5784890151612bdb601f891682612ae8565b8355505b6001600288020188555050505b505050505050565b6000612c0f612c0a612c058461210d565b6129fa565b61210d565b9050919050565b6000612c2182612bf4565b9050919050565b6000612c3382612c16565b9050919050565b612c4381612c28565b82525050565b600060a082019050612c5e6000830188612584565b612c6b6020830187612c3a565b612c78604083018661201d565b8181036060830152612c8a818561209e565b9050612c99608083018461201d565b9695505050505050565b6000612cae82612013565b9150612cb983612013565b9250828202612cc781612013565b91508282048414831517612cde57612cdd61285f565b5b5092915050565b7f496e73756666696369656e742066756e6420696e2074686520706f6f6c000000600082015250565b6000612d1b601d83612052565b9150612d2682612ce5565b602082019050919050565b60006020820190508181036000830152612d4a81612d0e565b9050919050565b6000612d5c82612013565b9150612d6783612013565b9250828203905081811115612d7f57612d7e61285f565b5b92915050565b7f4e487b7100000000000000000000000000000000000000000000000000000000600052601260045260246000fd5b6000612dbf82612013565b9150612dca83612013565b925082612dda57612dd9612d85565b5b828204905092915050565b7f496e73756666696369656e7420746f6b656e20737570706c7900000000000000600082015250565b6000612e1b601983612052565b9150612e2682612de5565b602082019050919050565b60006020820190508181036000830152612e4a81612e0e565b9050919050565b6000606082019050612e666000830186612584565b612e73602083018561201d565b612e80604083018461201d565b949350505050565b6000604082019050612e9d600083018561201d565b612eaa602083018461201d565b939250505056fea2646970667358221220d99c00da68672599b3f28c6eb610c776a21240a46b735654b9d3414f4bee3dc264736f6c63430008140033",
  "linkReferences": {},
  "deployedLinkReferences": {}
}